{
  "_format": "hh-sol-artifact-1",
  "contractName": "VeritasRegistry",
  "sourceName": "contracts/VeritasRegistry.sol",
  "abi": [
    {
      "inputs": [],
      "stateMutability": "nonpayable",
      "type": "constructor"
    },
    {
      "anonymous": false,
      "inputs": [
        {
          "indexed": false,
          "internalType": "string",
          "name": "publicKey",
          "type": "string"
        },
        {
          "indexed": false,
          "internalType": "uint256",
          "name": "timestamp",
          "type": "uint256"
        }
      ],
      "name": "DeviceRegistered",
      "type": "event"
    },
    {
      "anonymous": false,
      "inputs": [
        {
          "indexed": false,
          "internalType": "string",
          "name": "publicKey",
          "type": "string"
        },
        {
          "indexed": false,
          "internalType": "uint256",
          "name": "timestamp",
          "type": "uint256"
        }
      ],
      "name": "DeviceRevoked",
      "type": "event"
    },
    {
      "inputs": [
        {
          "internalType": "string",
          "name": "publicKey",
          "type": "string"
        }
      ],
      "name": "isDeviceTrusted",
      "outputs": [
        {
          "internalType": "bool",
          "name": "",
          "type": "bool"
        }
      ],
      "stateMutability": "view",
      "type": "function"
    },
    {
      "inputs": [],
      "name": "owner",
      "outputs": [
        {
          "internalType": "address",
          "name": "",
          "type": "address"
        }
      ],
      "stateMutability": "view",
      "type": "function"
    },
    {
      "inputs": [
        {
          "internalType": "string",
          "name": "publicKey",
          "type": "string"
        }
      ],
      "name": "registerDevice",
      "outputs": [],
      "stateMutability": "nonpayable",
      "type": "function"
    },
    {
      "inputs": [
        {
          "internalType": "string",
          "name": "publicKey",
          "type": "string"
        }
      ],
      "name": "revokeDevice",
      "outputs": [],
      "stateMutability": "nonpayable",
      "type": "function"
    }
  ],
  "bytecode": "0x608060405234801561001057600080fd5b50336000806101000a81548173ffffffffffffffffffffffffffffffffffffffff021916908373ffffffffffffffffffffffffffffffffffffffff16021790555061091e806100606000396000f3fe608060405234801561001057600080fd5b506004361061004c5760003560e01c80632c895828146100515780638da5cb5b1461006d5780639a782f591461008b578063cf4b985e146100bb575b600080fd5b61006b60048036038101906100669190610562565b6100d7565b005b610075610243565b60405161008291906105ec565b60405180910390f35b6100a560048036038101906100a09190610562565b610267565b6040516100b29190610622565b60405180910390f35b6100d560048036038101906100d09190610562565b61029c565b005b60008054906101000a900473ffffffffffffffffffffffffffffffffffffffff1673ffffffffffffffffffffffffffffffffffffffff163373ffffffffffffffffffffffffffffffffffffffff1614610165576040517f08c379a000000000000000000000000000000000000000000000000000000000815260040161015c9061069a565b60405180910390fd5b600181604051610175919061072b565b908152602001604051809103902060009054906101000a900460ff166101d0576040517f08c379a00000000000000000000000000000000000000000000000000000000081526004016101c7906107b4565b60405180910390fd5b60006001826040516101e2919061072b565b908152602001604051809103902060006101000a81548160ff0219169083151502179055507ff0dcb9a1a9e16116fc7348170345836e52dd2a74bd49bdd6e2edeac2b843d1ea8142604051610238929190610826565b60405180910390a150565b60008054906101000a900473ffffffffffffffffffffffffffffffffffffffff1681565b6000600182604051610279919061072b565b908152602001604051809103902060009054906101000a900460ff169050919050565b60008054906101000a900473ffffffffffffffffffffffffffffffffffffffff1673ffffffffffffffffffffffffffffffffffffffff163373ffffffffffffffffffffffffffffffffffffffff161461032a576040517f08c379a00000000000000000000000000000000000000000000000000000000081526004016103219061069a565b60405180910390fd5b60018160405161033a919061072b565b908152602001604051809103902060009054906101000a900460ff1615610396576040517f08c379a000000000000000000000000000000000000000000000000000000000815260040161038d906108c8565b60405180910390fd5b600180826040516103a7919061072b565b908152602001604051809103902060006101000a81548160ff0219169083151502179055507f285bbb418cc05b8d4a46d2d381a92d124c6199c24b8981217b3ad5eac56d525081426040516103fd929190610826565b60405180910390a150565b6000604051905090565b600080fd5b600080fd5b600080fd5b600080fd5b6000601f19601f8301169050919050565b7f4e487b7100000000000000000000000000000000000000000000000000000000600052604160045260246000fd5b61046f82610426565b810181811067ffffffffffffffff8211171561048e5761048d610437565b5b80604052505050565b60006104a1610408565b90506104ad8282610466565b919050565b600067ffffffffffffffff8211156104cd576104cc610437565b5b6104d682610426565b9050602081019050919050565b82818337600083830152505050565b6000610505610500846104b2565b610497565b90508281526020810184848401111561052157610520610421565b5b61052c8482856104e3565b509392505050565b600082601f8301126105495761054861041c565b5b81356105598482602086016104f2565b91505092915050565b60006020828403121561057857610577610412565b5b600082013567ffffffffffffffff81111561059657610595610417565b5b6105a284828501610534565b91505092915050565b600073ffffffffffffffffffffffffffffffffffffffff82169050919050565b60006105d6826105ab565b9050919050565b6105e6816105cb565b82525050565b600060208201905061060160008301846105dd565b92915050565b60008115159050919050565b61061c81610607565b82525050565b60006020820190506106376000830184610613565b92915050565b600082825260208201905092915050565b7f566572697461733a2063616c6c6572206973206e6f7420746865206f776e6572600082015250565b600061068460208361063d565b915061068f8261064e565b602082019050919050565b600060208201905081810360008301526106b381610677565b9050919050565b600081519050919050565b600081905092915050565b60005b838110156106ee5780820151818401526020810190506106d3565b60008484015250505050565b6000610705826106ba565b61070f81856106c5565b935061071f8185602086016106d0565b80840191505092915050565b600061073782846106fa565b915081905092915050565b7f566572697461733a20446576696365206e6f742072656769737465726564206f60008201527f7220616c7265616479207265766f6b6564000000000000000000000000000000602082015250565b600061079e60318361063d565b91506107a982610742565b604082019050919050565b600060208201905081810360008301526107cd81610791565b9050919050565b60006107df826106ba565b6107e9818561063d565b93506107f98185602086016106d0565b61080281610426565b840191505092915050565b6000819050919050565b6108208161080d565b82525050565b6000604082019050818103600083015261084081856107d4565b905061084f6020830184610817565b9392505050565b7f566572697461733a2044657669636520616c726561647920726567697374657260008201527f6564000000000000000000000000000000000000000000000000000000000000602082015250565b60006108b260228361063d565b91506108bd82610856565b604082019050919050565b600060208201905081810360008301526108e1816108a5565b905091905056fea264697066735822122026e25b54bbbfcdd7559de640d967d7d240540ff256747dd8fc6ccb1d0e91867964736f6c63430008180033",
  "linkReferences": {},
  "deployedLinkReferences": {}
}